{
  "contractName": "Credential",
  "abi": [
    {
      "constant": true,
      "inputs": [],
      "name": "count",
      "outputs": [
        {
          "name": "",
          "type": "uint256"
        }
      ],
      "payable": false,
      "stateMutability": "view",
      "type": "function"
    },
    {
      "constant": true,
      "inputs": [
        {
          "name": "",
          "type": "address"
        }
      ],
      "name": "users",
      "outputs": [
        {
          "name": "",
          "type": "bool"
        }
      ],
      "payable": false,
      "stateMutability": "view",
      "type": "function"
    },
    {
      "constant": true,
      "inputs": [
        {
          "name": "",
          "type": "uint256"
        }
      ],
      "name": "savedEntries",
      "outputs": [
        {
          "name": "id",
          "type": "uint256"
        },
        {
          "name": "accountAdress",
          "type": "address"
        },
        {
          "name": "website",
          "type": "string"
        },
        {
          "name": "username",
          "type": "string"
        },
        {
          "name": "password",
          "type": "string"
        }
      ],
      "payable": false,
      "stateMutability": "view",
      "type": "function"
    },
    {
      "inputs": [],
      "payable": false,
      "stateMutability": "nonpayable",
      "type": "constructor"
    },
    {
      "anonymous": false,
      "inputs": [
        {
          "indexed": true,
          "name": "_userId",
          "type": "uint256"
        }
      ],
      "name": "addedEvent",
      "type": "event"
    },
    {
      "constant": false,
      "inputs": [
        {
          "name": "_address",
          "type": "address"
        },
        {
          "name": "_website",
          "type": "string"
        },
        {
          "name": "_username",
          "type": "string"
        },
        {
          "name": "_password",
          "type": "string"
        }
      ],
      "name": "addEntry",
      "outputs": [],
      "payable": false,
      "stateMutability": "nonpayable",
      "type": "function"
    },
    {
      "constant": false,
      "inputs": [
        {
          "name": "_address",
          "type": "address"
        },
        {
          "name": "_website",
          "type": "string"
        },
        {
          "name": "_username",
          "type": "string"
        },
        {
          "name": "_password",
          "type": "string"
        }
      ],
      "name": "addCredMapEntry",
      "outputs": [],
      "payable": false,
      "stateMutability": "nonpayable",
      "type": "function"
    },
    {
      "constant": false,
      "inputs": [
        {
          "name": "_address",
          "type": "address"
        },
        {
          "name": "_id",
          "type": "uint256"
        }
      ],
      "name": "deleteCredMapEntry",
      "outputs": [],
      "payable": false,
      "stateMutability": "nonpayable",
      "type": "function"
    }
  ],
  "bytecode": "0x6060604052341561000f57600080fd5b6100e173640a0990dd1b28142d3d20a96794bc43f2e2fd336040805190810160405280600981526020017f57656273697465203100000000000000000000000000000000000000000000008152506040805190810160405280600a81526020017f557365726e616d652031000000000000000000000000000000000000000000008152506040805190810160405280600a81526020017f50617373776f72642031000000000000000000000000000000000000000000008152506101b8640100000000026105c1176401000000009004565b6101b373640a0990dd1b28142d3d20a96794bc43f2e2fd336040805190810160405280600981526020017f57656273697465203200000000000000000000000000000000000000000000008152506040805190810160405280600a81526020017f557365726e616d652032000000000000000000000000000000000000000000008152506040805190810160405280600a81526020017f50617373776f72642032000000000000000000000000000000000000000000008152506101b8640100000000026105c1176401000000009004565b610375565b60026000815480929190600101919050555060a06040519081016040528060025481526020018573ffffffffffffffffffffffffffffffffffffffff168152602001848152602001838152602001828152506001600060025481526020019081526020016000206000820151816000015560208201518160010160006101000a81548173ffffffffffffffffffffffffffffffffffffffff021916908373ffffffffffffffffffffffffffffffffffffffff160217905550604082015181600201908051906020019061028c9291906102d0565b5060608201518160030190805190602001906102a99291906102d0565b5060808201518160040190805190602001906102c69291906102d0565b5090505050505050565b828054600181600116156101000203166002900490600052602060002090601f016020900481019282601f1061031157805160ff191683800117855561033f565b8280016001018555821561033f579182015b8281111561033e578251825591602001919060010190610323565b5b50905061034c9190610350565b5090565b61037291905b8082111561036e576000816000905550600101610356565b5090565b90565b610877806103846000396000f300606060405260043610610078576000357c0100000000000000000000000000000000000000000000000000000000900463ffffffff16806306661abd1461007d57806316b46b0b146100a65780637f811620146100e8578063a783b42e146101ea578063a87430ba146102ec578063de0dd59e1461033d575b600080fd5b341561008857600080fd5b610090610542565b6040518082815260200191505060405180910390f35b34156100b157600080fd5b6100e6600480803573ffffffffffffffffffffffffffffffffffffffff16906020019091908035906020019091905050610548565b005b34156100f357600080fd5b6101e8600480803573ffffffffffffffffffffffffffffffffffffffff1690602001909190803590602001908201803590602001908080601f0160208091040260200160405190810160405280939291908181526020018383808284378201915050505050509190803590602001908201803590602001908080601f0160208091040260200160405190810160405280939291908181526020018383808284378201915050505050509190803590602001908201803590602001908080601f016020809104026020016040519081016040528093929190818152602001838380828437820191505050505050919050506105c1565b005b34156101f557600080fd5b6102ea600480803573ffffffffffffffffffffffffffffffffffffffff1690602001909190803590602001908201803590602001908080601f0160208091040260200160405190810160405280939291908181526020018383808284378201915050505050509190803590602001908201803590602001908080601f0160208091040260200160405190810160405280939291908181526020018383808284378201915050505050509190803590602001908201803590602001908080601f016020809104026020016040519081016040528093929190818152602001838380828437820191505050505050919050506106d9565b005b34156102f757600080fd5b610323600480803573ffffffffffffffffffffffffffffffffffffffff169060200190919050506106eb565b604051808215151515815260200191505060405180910390f35b341561034857600080fd5b61035e600480803590602001909190505061070b565b604051808681526020018573ffffffffffffffffffffffffffffffffffffffff1673ffffffffffffffffffffffffffffffffffffffff1681526020018060200180602001806020018481038452878181546001816001161561010002031660029004815260200191508054600181600116156101000203166002900480156104275780601f106103fc57610100808354040283529160200191610427565b820191906000526020600020905b81548152906001019060200180831161040a57829003601f168201915b50508481038352868181546001816001161561010002031660029004815260200191508054600181600116156101000203166002900480156104aa5780601f1061047f576101008083540402835291602001916104aa565b820191906000526020600020905b81548152906001019060200180831161048d57829003601f168201915b505084810382528581815460018160011615610100020316600290048152602001915080546001816001161561010002031660029004801561052d5780601f106105025761010080835404028352916020019161052d565b820191906000526020600020905b81548152906001019060200180831161051057829003601f168201915b50509850505050505050505060405180910390f35b60025481565b600160008281526020019081526020016000206000808201600090556001820160006101000a81549073ffffffffffffffffffffffffffffffffffffffff021916905560028201600061059b919061075e565b6003820160006105ab919061075e565b6004820160006105bb919061075e565b50505050565b60026000815480929190600101919050555060a06040519081016040528060025481526020018573ffffffffffffffffffffffffffffffffffffffff168152602001848152602001838152602001828152506001600060025481526020019081526020016000206000820151816000015560208201518160010160006101000a81548173ffffffffffffffffffffffffffffffffffffffff021916908373ffffffffffffffffffffffffffffffffffffffff16021790555060408201518160020190805190602001906106959291906107a6565b5060608201518160030190805190602001906106b29291906107a6565b5060808201518160040190805190602001906106cf9291906107a6565b5090505050505050565b6106e5848484846105c1565b50505050565b60006020528060005260406000206000915054906101000a900460ff1681565b60016020528060005260406000206000915090508060000154908060010160009054906101000a900473ffffffffffffffffffffffffffffffffffffffff16908060020190806003019080600401905085565b50805460018160011615610100020316600290046000825580601f1061078457506107a3565b601f0160209004906000526020600020908101906107a29190610826565b5b50565b828054600181600116156101000203166002900490600052602060002090601f016020900481019282601f106107e757805160ff1916838001178555610815565b82800160010185558215610815579182015b828111156108145782518255916020019190600101906107f9565b5b5090506108229190610826565b5090565b61084891905b8082111561084457600081600090555060010161082c565b5090565b905600a165627a7a72305820d9dcb9a30674e8bf90d8c1b281a5ae81401c46d0350cc5b0fe3ad34cba02c5d10029",
  "source": "pragma solidity 0.4.20;\n\ncontract Credential {\n     struct CredMap {\n        uint id;\n\t\taddress accountAdress;\n\t\tstring website;\n        string username;\n        string password;\n    }\n\n        mapping(address => bool) public users;\n        mapping(uint => CredMap) public savedEntries;\n        //mapping(address => CredMap[]) public savedEntries;\n        uint public count;\n\n     event addedEvent (\n        uint indexed _userId\n    );\n\n    function Credential () public {\n        addEntry(0x640a0990dd1B28142D3D20A96794BC43F2e2FD33,\"Website 1\", \"Username 1\", \"Password 1\");\n        addEntry(0x640a0990dd1B28142D3D20A96794BC43F2e2FD33,\"Website 2\", \"Username 2\", \"Password 2\");\n    }\n\n    function addEntry (address _address, string _website,string _username,string _password) public {\n        count ++;\n        savedEntries[count] = CredMap(count, _address, _website, _username, _password);\n    }\n\n    function addCredMapEntry (address _address, string _website, string _username,string _password) public {\n\t\t addEntry(_address,_website, _username, _password);\n    }\n\t\n\tfunction deleteCredMapEntry (address _address, uint _id) public {\n      \tdelete savedEntries[_id];\n    }\n}\n",
  "sourcePath": "D:\\Tech\\Blockchain\\credential-manager-dapp\\contracts\\Credential.sol",
  "compiler": {
    "name": "solc",
    "version": "0.4.20+commit.3155dd80.Emscripten.clang"
  },
  "schemaVersion": "3.4.3",
  "updatedAt": "2021-10-18T15:14:21.312Z",
  "networkType": "ethereum",
  "devdoc": {
    "methods": {}
  },
  "userdoc": {
    "methods": {}
  }
}